{
  "contractName": "IBAROE",
  "abi": [
    {
      "anonymous": false,
      "inputs": [
        {
          "indexed": true,
          "internalType": "uint256",
          "name": "id",
          "type": "uint256"
        },
        {
          "indexed": false,
          "internalType": "string",
          "name": "description",
          "type": "string"
        },
        {
          "indexed": false,
          "internalType": "uint256",
          "name": "timestamp",
          "type": "uint256"
        },
        {
          "indexed": false,
          "internalType": "address",
          "name": "submitter",
          "type": "address"
        }
      ],
      "name": "RecordAdded",
      "type": "event"
    },
    {
      "inputs": [],
      "name": "recordCount",
      "outputs": [
        {
          "internalType": "uint256",
          "name": "",
          "type": "uint256"
        }
      ],
      "stateMutability": "view",
      "type": "function"
    },
    {
      "inputs": [
        {
          "internalType": "uint256",
          "name": "",
          "type": "uint256"
        }
      ],
      "name": "records",
      "outputs": [
        {
          "internalType": "uint256",
          "name": "id",
          "type": "uint256"
        },
        {
          "internalType": "string",
          "name": "description",
          "type": "string"
        },
        {
          "internalType": "uint256",
          "name": "timestamp",
          "type": "uint256"
        },
        {
          "internalType": "address",
          "name": "submitter",
          "type": "address"
        }
      ],
      "stateMutability": "view",
      "type": "function"
    },
    {
      "inputs": [
        {
          "internalType": "string",
          "name": "_description",
          "type": "string"
        }
      ],
      "name": "addRecord",
      "outputs": [],
      "stateMutability": "nonpayable",
      "type": "function"
    },
    {
      "inputs": [
        {
          "internalType": "uint256",
          "name": "_id",
          "type": "uint256"
        }
      ],
      "name": "getRecord",
      "outputs": [
        {
          "internalType": "uint256",
          "name": "",
          "type": "uint256"
        },
        {
          "internalType": "string",
          "name": "",
          "type": "string"
        },
        {
          "internalType": "uint256",
          "name": "",
          "type": "uint256"
        },
        {
          "internalType": "address",
          "name": "",
          "type": "address"
        }
      ],
      "stateMutability": "view",
      "type": "function"
    },
    {
      "inputs": [],
      "name": "getRecordCount",
      "outputs": [
        {
          "internalType": "uint256",
          "name": "",
          "type": "uint256"
        }
      ],
      "stateMutability": "view",
      "type": "function"
    }
  ],
  "bytecode": "0x608060405234801561000f575f80fd5b50610c6a8061001d5f395ff3fe608060405234801561000f575f80fd5b5060043610610055575f3560e01c806303e9e60914610059578063344610671461008c578063900407bc146100bf578063ca267f28146100dd578063d81aa8c4146100fb575b5f80fd5b610073600480360381019061006e919061051a565b610117565b604051610083949392919061061d565b60405180910390f35b6100a660048036038101906100a1919061051a565b6102c0565b6040516100b6949392919061061d565b60405180910390f35b6100c761039f565b6040516100d49190610667565b60405180910390f35b6100e56103a5565b6040516100f29190610667565b60405180910390f35b610115600480360381019061011091906107ac565b6103ae565b005b5f60605f805f8511801561012d57506001548511155b61016c576040517f08c379a00000000000000000000000000000000000000000000000000000000081526004016101639061083d565b60405180910390fd5b5f8060018761017b9190610888565b8154811061018c5761018b6108bb565b5b905f5260205f2090600402016040518060800160405290815f82015481526020016001820180546101bc90610915565b80601f01602080910402602001604051908101604052809291908181526020018280546101e890610915565b80156102335780601f1061020a57610100808354040283529160200191610233565b820191905f5260205f20905b81548152906001019060200180831161021657829003601f168201915b5050505050815260200160028201548152602001600382015f9054906101000a900473ffffffffffffffffffffffffffffffffffffffff1673ffffffffffffffffffffffffffffffffffffffff1673ffffffffffffffffffffffffffffffffffffffff16815250509050805f01518160200151826040015183606001519450945094509450509193509193565b5f81815481106102ce575f80fd5b905f5260205f2090600402015f91509050805f0154908060010180546102f390610915565b80601f016020809104026020016040519081016040528092919081815260200182805461031f90610915565b801561036a5780601f106103415761010080835404028352916020019161036a565b820191905f5260205f20905b81548152906001019060200180831161034d57829003601f168201915b505050505090806002015490806003015f9054906101000a900473ffffffffffffffffffffffffffffffffffffffff16905084565b60015481565b5f600154905090565b60015f8154809291906103c090610945565b91905055505f604051806080016040528060015481526020018381526020014281526020013373ffffffffffffffffffffffffffffffffffffffff16815250908060018154018082558091505060019003905f5260205f2090600402015f909190919091505f820151815f015560208201518160010190816104429190610b29565b50604082015181600201556060820151816003015f6101000a81548173ffffffffffffffffffffffffffffffffffffffff021916908373ffffffffffffffffffffffffffffffffffffffff16021790555050506001547f54937c18fb7a75249b5969c89dd9808ff5f134e8f74cd7fa1cf272287c8e1e548242336040516104cb93929190610bf8565b60405180910390a250565b5f604051905090565b5f80fd5b5f80fd5b5f819050919050565b6104f9816104e7565b8114610503575f80fd5b50565b5f81359050610514816104f0565b92915050565b5f6020828403121561052f5761052e6104df565b5b5f61053c84828501610506565b91505092915050565b61054e816104e7565b82525050565b5f81519050919050565b5f82825260208201905092915050565b5f5b8381101561058b578082015181840152602081019050610570565b5f8484015250505050565b5f601f19601f8301169050919050565b5f6105b082610554565b6105ba818561055e565b93506105ca81856020860161056e565b6105d381610596565b840191505092915050565b5f73ffffffffffffffffffffffffffffffffffffffff82169050919050565b5f610607826105de565b9050919050565b610617816105fd565b82525050565b5f6080820190506106305f830187610545565b818103602083015261064281866105a6565b90506106516040830185610545565b61065e606083018461060e565b95945050505050565b5f60208201905061067a5f830184610545565b92915050565b5f80fd5b5f80fd5b7f4e487b71000000000000000000000000000000000000000000000000000000005f52604160045260245ffd5b6106be82610596565b810181811067ffffffffffffffff821117156106dd576106dc610688565b5b80604052505050565b5f6106ef6104d6565b90506106fb82826106b5565b919050565b5f67ffffffffffffffff82111561071a57610719610688565b5b61072382610596565b9050602081019050919050565b828183375f83830152505050565b5f61075061074b84610700565b6106e6565b90508281526020810184848401111561076c5761076b610684565b5b610777848285610730565b509392505050565b5f82601f83011261079357610792610680565b5b81356107a384826020860161073e565b91505092915050565b5f602082840312156107c1576107c06104df565b5b5f82013567ffffffffffffffff8111156107de576107dd6104e3565b5b6107ea8482850161077f565b91505092915050565b7f496e76616c6964207265636f72642049440000000000000000000000000000005f82015250565b5f61082760118361055e565b9150610832826107f3565b602082019050919050565b5f6020820190508181035f8301526108548161081b565b9050919050565b7f4e487b71000000000000000000000000000000000000000000000000000000005f52601160045260245ffd5b5f610892826104e7565b915061089d836104e7565b92508282039050818111156108b5576108b461085b565b5b92915050565b7f4e487b71000000000000000000000000000000000000000000000000000000005f52603260045260245ffd5b7f4e487b71000000000000000000000000000000000000000000000000000000005f52602260045260245ffd5b5f600282049050600182168061092c57607f821691505b60208210810361093f5761093e6108e8565b5b50919050565b5f61094f826104e7565b91507fffffffffffffffffffffffffffffffffffffffffffffffffffffffffffffffff82036109815761098061085b565b5b600182019050919050565b5f819050815f5260205f209050919050565b5f6020601f8301049050919050565b5f82821b905092915050565b5f600883026109e87fffffffffffffffffffffffffffffffffffffffffffffffffffffffffffffffff826109ad565b6109f286836109ad565b95508019841693508086168417925050509392505050565b5f819050919050565b5f610a2d610a28610a23846104e7565b610a0a565b6104e7565b9050919050565b5f819050919050565b610a4683610a13565b610a5a610a5282610a34565b8484546109b9565b825550505050565b5f90565b610a6e610a62565b610a79818484610a3d565b505050565b5b81811015610a9c57610a915f82610a66565b600181019050610a7f565b5050565b601f821115610ae157610ab28161098c565b610abb8461099e565b81016020851015610aca578190505b610ade610ad68561099e565b830182610a7e565b50505b505050565b5f82821c905092915050565b5f610b015f1984600802610ae6565b1980831691505092915050565b5f610b198383610af2565b9150826002028217905092915050565b610b3282610554565b67ffffffffffffffff811115610b4b57610b4a610688565b5b610b558254610915565b610b60828285610aa0565b5f60209050601f831160018114610b91575f8415610b7f578287015190505b610b898582610b0e565b865550610bf0565b601f198416610b9f8661098c565b5f5b82811015610bc657848901518255600182019150602085019450602081019050610ba1565b86831015610be35784890151610bdf601f891682610af2565b8355505b6001600288020188555050505b505050505050565b5f6060820190508181035f830152610c1081866105a6565b9050610c1f6020830185610545565b610c2c604083018461060e565b94935050505056fea264697066735822122013fb7fe2960c2edc1266536153baf7c23918963d6578805e1f90b29b7cfe43f364736f6c63430008150033",
  "immutableReferences": {},
  "source": "// SPDX-License-Identifier: MIT\r\npragma solidity ^0.8.0;\r\n\r\ncontract IBAROE {\r\n    struct RegulatoryRecord {\r\n        uint256 id;\r\n        string description;\r\n        uint256 timestamp;\r\n        address submitter;\r\n    }\r\n\r\n    RegulatoryRecord[] public records;\r\n    uint256 public recordCount;\r\n\r\n    event RecordAdded(uint256 indexed id, string description, uint256 timestamp, address submitter);\r\n\r\n    function addRecord(string memory _description) public {\r\n        recordCount++;\r\n        records.push(RegulatoryRecord(recordCount, _description, block.timestamp, msg.sender));\r\n        emit RecordAdded(recordCount, _description, block.timestamp, msg.sender);\r\n    }\r\n\r\n    function getRecord(uint256 _id) public view returns (uint256, string memory, uint256, address) {\r\n        require(_id > 0 && _id <= recordCount, \"Invalid record ID\");\r\n        RegulatoryRecord memory record = records[_id - 1];\r\n        return (record.id, record.description, record.timestamp, record.submitter);\r\n    }\r\n\r\n    function getRecordCount() public view returns (uint256) {\r\n        return recordCount;\r\n    }\r\n}",
  "sourcePath": "C:\\Users\\Veteran\\portfolio\\IBAROE\\blockchain\\contracts\\IBAROE.sol",
  "compiler": {
    "name": "solc",
    "version": "0.8.21+commit.d9974bed.Emscripten.clang"
  },
  "schemaVersion": "3.4.16",
  "updatedAt": "2024-09-13T21:02:22.717Z",
  "devdoc": {
    "kind": "dev",
    "methods": {},
    "version": 1
  },
  "userdoc": {
    "kind": "user",
    "methods": {},
    "version": 1
  }
}